:100000000C948B000C94B3000C94B3000C94B300CC
:100010000C94B3000C94B3000C94B3000C94B30094
:100020000C94B3000C94B3000C94B3000C94B30084
:100030000C94B3000C94B3000C94B3000C94B30074
:100040000C943D070C94B3000C940B070C94E5063C
:100050000C94B3000C94B3000C94B3000C94B30054
:100060000C94B3000C94B30008000000BE92244925
:10007000123EABAAAA2ABECDCCCC4C3E00000080DA
:10008000BEABAAAAAA3E00000000BF000000803F4D
:100090000000000000084178D3BB4387D1133D190D
:1000A0000E3CC3BD4282AD2B3E68EC8276BED98F3A
:1000B000E1A93E4C80EFFFBE01C4FF7F3F0000007E
:1000C000000000000000240027002A0000000008B3
:1000D000000201000003040700000000000000000F
:1000E00001020408102040800102040810200102CF
:1000F0000408102000000000250028002B00040444
:1001000004040404040402020202020203030303BF
:10011000030387071C0A11241FBECFEFD8E0DEBF00
:10012000CDBF11E0A0E0B1E0E4EBFDE102C005903D
:100130000D92AA3BB107D9F722E0AAEBB1E001C0CA
:100140001D92AC3AB207E1F710E0CAE8D0E004C073
:100150002197FE010E948C0DC938D107C9F70E9472
:1001600064080C94CD0E0C94000090E0FC01E45364
:10017000FF4F2491FC01E052FF4F3491FC01E2500B
:10018000FF4FE491EE23B9F0222339F02330F1F050
:1001900098F4213009F1223019F1F0E0EE0FFF1F41
:1001A000EC50FF4FA591B4918FB7F894EC91309536
:1001B0003E233C938FBF08952730A9F02830C9F023
:1001C000243059F7809180008F7D03C0809180009A
:1001D0008F7780938000E1CF84B58F7784BDDDCFAA
:1001E00084B58F7DFBCF8091B0008F778093B00076
:1001F000D4CF8091B0008F7DF9CF8F929F92AF9234
:10020000BF92CF92DF92EF92FF92CF932091940210
:100210003091950282179307E8F54B01AA24BB247D
:10022000C82DC52ED62EE72EFF24BC2DA42F20913D
:100230009A02222361F0829E40011124C92D2C9D37
:1002400060011124BD2D249FF0011124AF2FE091F6
:10025000A002E0909B02F0909C0230919D02E3137B
:1002600023C09C01220F331F820F931F8E0D9F1DF1
:10027000E0919D02E80FF92FF11DC083E0919E02ED
:10028000E80FF92FF11DB08320919F02820F911D7D
:10029000FC01A083CF91FF90EF90DF90CF90BF90B3
:1002A000AF909F908F900895880F991F880F991F86
:1002B0008E0D9F1D472F552766277727222349F04C
:1002C00030E0249F7001259FF00C349FF00C112426
:1002D0004F2DE80FF92FF11D4083CACFAF92BF9287
:1002E000CF92DF92EF92FF920F931F93CF93DF9302
:1002F0006C017B018B01040F151FEB015E01AE1831
:10030000BF08C017D10759F06991D601ED91FC9152
:100310000190F081E02DC6010995892B79F7C5017F
:10032000DF91CF911F910F91FF90EF90DF90CF90D1
:10033000BF90AF900895FC01538D448D252F30E080
:10034000842F90E0821B930B541710F0CF960895E2
:1003500001970895FC01918D828D981761F0A28D0F
:10036000AE0FBF2FB11D5D968C91928D9F5F9F73D5
:10037000928F90E008958FEF9FEF0895FC01918D8B
:10038000828D981731F0828DE80FF11D858D90E0F8
:1003900008958FEF9FEF0895FC01918D228D892F95
:1003A00090E0805C9F4F821B91098F73992708957D
:1003B00081EE91E00E94CC0121E0892B09F420E03C
:1003C000822F089580E090E0892B29F00E94D801C7
:1003D00081110C9400000895FC01A48DA80FB92F81
:1003E000B11DA35ABF4F2C91848D90E001968F735D
:1003F0009927848FA689B7892C93A089B1898C917C
:10040000837080648C93938D848D981306C00288CA
:10041000F389E02D80818F7D80830895EF92FF9294
:100420000F931F93CF93DF93EC0181E0888F9B8D17
:100430008C8D98131AC0E889F989808185FF15C0D1
:100440009FB7F894EE89FF896083E889F9898081F4
:100450008370806480839FBF81E090E0DF91CF91C3
:100460001F910F91FF90EF900895F62E0B8D10E0E5
:100470000F5F1F4F0F731127E02E8C8D8E110CC054
:100480000FB607FCFACFE889F989808185FFF5CF9F
:10049000CE010E94EC01F1CFEB8DEC0FFD2FF11D91
:1004A000E35AFF4FF0829FB7F8940B8FEA89FB89DC
:1004B00080818062CFCFCF93DF93EC01888D88233A
:1004C000B9F0AA89BB89E889F9898C9185FD03C0B7
:1004D000808186FD0DC00FB607FCF7CF8C9185FF9C
:1004E000F2CF808185FFEDCFCE010E94EC01E9CFF4
:1004F000DF91CF910895CF93DF9390E0FC01E0521C
:10050000FF4F249182509F4FFC0184918823D1F0AA
:1005100090E0880F991FFC01EE53FF4FA591B49115
:10052000FC01EC50FF4FC591D49161110EC09FB7F3
:10053000F8948C91E22FE0958E238C932881E2230E
:10054000E8839FBFDF91CF9108958FB7F894EC9126
:10055000E22BEC938FBFF6CF3FB7F8948091BF01A9
:100560009091C001A091C101B091C20126B5A89B94
:1005700005C02F3F19F00196A11DB11D3FBFBA2F35
:10058000A92F982F8827BC01CD01620F711D811DF5
:10059000911D42E0660F771F881F991F4A95D1F77A
:1005A00008950F931F93CF93DF93CDB7DEB72997AD
:1005B0000FB6F894DEBF0FBECDBF80919B02909125
:1005C0009C02892B09F47CC00E94AC020091A1021C
:1005D0001091A2022091A3023091A402601771072A
:1005E0008207930740F46093A1027093A202809364
:1005F000A3029093A4020091A1021091A202209163
:10060000A3023091A402601B710B820B930B6C321E
:10061000714081059105C0F2F89480919602909105
:1006200097029A838983E0919B02F0919C02DF01FB
:1006300011968081898790919202E091A502F091B4
:10064000A6028091A702992309F445C09081982BB6
:1006500098879081809589238F838F818C8388E010
:100660008B8358856F8149853B812C8189819A8153
:10067000508347FD252F3A952083262F39F0441FBC
:1006800000C000006083000000C0F2CF38E04D9150
:1006900060830000019761F7F093A602E093A50242
:1006A00049873B832C839A83898378940E94AC0288
:1006B0006093A1027093A2028093A3029093A4027C
:1006C00029960FB6F894DEBF0FBECDBFDF91CF9154
:1006D0001F910F9108959081982B98879081809514
:1006E00089238F838F818E8388E08D8358856F81E6
:1006F00049853D812E8189819A81508347FD252F2F
:1007000000C000C0208300C000C000C000C000C006
:1007100060830000262F3A9541F0441F000000C07E
:1007200000C000C000C000C0E8CF38E04D9100C05C
:10073000608300C0019709F7F093A602E093A50239
:1007400049873D832E83AFCF8F929F92AF92BF9206
:10075000CF92DF92EF92FF926B017C010E94AC027C
:100760004B015C01C114D104E104F104B9F00E9411
:10077000AC02681979098A099B09683E73408105B2
:10078000910580F321E0C21AD108E108F10888EE52
:10079000880E83E0981EA11CB11CE4CFFF90EF905F
:1007A000DF90CF90BF90AF909F908F9008959F92D1
:1007B000AF92BF92CF92DF92EF92FF920F931F936F
:1007C000CF93DF937C01EB01942E6C01C60ED71EF4
:1007D0008B01C616D7061CF50C5E1F4FAA24BB243E
:1007E000A81AB90A84E1C82ED12CC701F7FCC501AB
:1007F0009601281B390BC9018C0F9D1F801791078B
:10080000FCF40150110940918602509187026091D9
:10081000880270918902C8010E94FD00E6CF0F5F37
:100820001F4FC016D10664F040918202509183029E
:100830006091840270918502C8010E94FD00EFCF93
:100840009920B1F04091820250918302609184021C
:1008500070918502CE01DF91CF911F910F91FF9092
:10086000EF90DF90CF90BF90AF909F900C94FD00E1
:1008700040918602509187026091880270918902AE
:10088000E9CFCF92DF92EF92FF920F931F93CF9316
:10089000DF93FB01C12CD12C7601C3948B01080F8F
:1008A000191FEF0121960C171D07DCF180E1C81616
:1008B000D104E104F10460F184E1C816D104E1043B
:1008C000F104E9F0AAE0B0E0A70196010E94810DD1
:1008D0006F3F71058105910529F024F06FEF70E0FD
:1008E00080E090E0552744275A65CF010E94FD0023
:1008F0008FEFC81AD80AE80AF80AFE01D2CF409151
:100900008E0250918F026091900270919102EDCF12
:1009100040918A0250918B0260918C0270918D02FD
:10092000E4CFDF91CF911F910F91FF90EF90DF9077
:10093000CF9008958E3008F08E5087708064809339
:100940007C0080917A00806480937A0080917A00A4
:1009500086FDFCCF8091780090917900089583E125
:100960000E949A04092E000CAA0BBB0B21E08F35C4
:1009700032E09307A105B1050CF420E02093DB01E0
:1009800021E00297A105B1050CF420E02093E001DD
:1009900081E10E949A04092E000CAA0BBB0B21E0F6
:1009A0008F3532E09307A105B1050CF420E02093C8
:1009B000D10121E00297A105B1050CF420E02093BC
:1009C000D60182E10E949A04092E000CAA0BBB0BEF
:1009D00021E08F3532E09307A105B1050CF420E04A
:1009E0002093C70121E00297A105B1050CF420E096
:1009F0002093CC010895E2E9F2E04481558170E052
:100A000060E0818592850C94C60EFC010190002067
:100A1000E9F73197AF01481B590BBC0181EE91E01A
:100A20000C946E018F929F92AF92BF92CF92DF9201
:100A3000EF92FF920F931F93CF93DF93CDB7DEB763
:100A4000A1970FB6F894DEBF0FBECDBF6B017C013E
:100A50006DE281EE91E00E940E028C012227332785
:100A6000A9012C193D094E095F0919A27E0181E2F5
:100A7000E80EF11C8AE0882E912CA12CB12CCA0121
:100A8000B901A50194010E94400D605DF7016293D8
:100A90007F01211531054105510589F790E080E07E
:100AA000309719F0CF010E940505800F911FA19684
:100AB0000FB6F894DEBF0FBECDBFDF91CF911F916F
:100AC0000F91FF90EF90DF90CF90BF90AF909F90ED
:100AD0008F9008950C9405052F923F924F925F924C
:100AE0006F927F928F929F92AF92BF92CF92DF923E
:100AF000EF92FF920F931F93CF93DF93CDB7DEB7A3
:100B000028970FB6F894DEBF0FBECDBF8F836D83DD
:100B100029833A834B835C8322242394312C6623DC
:100B200019F060E4262E312C10E000E0812C912C8D
:100B30005401412C42E0542E612C712C8F810E9473
:100B40009A04CC24CA9433E0D32EC81AD90A0D2CA7
:100B5000000CEE08FF0821E0C21622E0D206E104F4
:100B6000F1040CF49AC0C701B601725081099109D1
:100B70009B01AC010E941C0D860E971EA81EB91E7B
:100B80000F5F1F4F20163106C9F69101330C440B3D
:100B9000550BC501B4010E94620DCA01B9010E9442
:100BA000ED0A0E94AE0C20E030E040E05BE30E94E2
:100BB0003B0C0E94E30B3D81332309F4EDC020E0A0
:100BC00030E040EA51E40E943B0C6B017C0149E0BB
:100BD00050E058874F8303E110E0312C212C8F81A6
:100BE000988523E0880F991F2A95E1F79E838D83CE
:100BF000FC01E95FFE4F80809180A280B38020E0FD
:100C000030E0A901C501B4010E94DE0B20E030E014
:100C100040E05FE387FD48C0C501B4010E942D0A92
:100C20000E94B50A2B013C0120E030E0A901C70178
:100C3000B6010E94DE0B20E030E040E05FE387FD7C
:100C400038C0C701B6010E942D0A0E94B50A461697
:100C5000570668067906C1F102151305ACF1A50126
:100C60009401C701B6010E94B00A87FF27C00F8117
:100C70001885015011099101200F311F3E832D83EA
:100C800037FF04C02F5F3F4F3E832D834D815E8130
:100C90005595479558874F83A2CFC301B2016C1970
:100CA0007D098E099F0964CFC501B4010E942C0AF9
:100CB000B7CFC701B6010E942C0AC7CF2F80388456
:100CC0009FEF291A390AD7CFED81FE81E95FFE4FE8
:100CD000C480D580E680F780DE82CD82C6010D2CEF
:100CE000000CAA0BBB0B29813A814B815C818217D6
:100CF0009307A407B507BCF4CA01B9010E94ED0A25
:100D000039E0C31AD10849E0C416D104A0F527ED93
:100D100033EA40E75FE30E943B0C0E94990A0E947D
:100D2000B50A7E836D834D815E81BA01550F880BB4
:100D3000990B693271058105910524F068E270E034
:100D400080E090E028960FB6F894DEBF0FBECDBFCE
:100D5000DF91CF911F910F91FF90EF90DF90CF9097
:100D6000BF90AF909F908F907F906F905F904F90CB
:100D70003F902F9008952D813E81223131053CF026
:100D800023E333E343E75FE30E943B0CC8CF27ED47
:100D900033EA40E75FE3F8CFC701B6010E94ED0AEE
:100DA00020E030E040E85AE30E943B0C20E030E0D5
:100DB00040E252E40E943B0C20E030E040EA51E483
:100DC0000E942C0A0E94B50AB4CF1F920F920FB650
:100DD0000F9211242F933F934F935F936F937F93C1
:100DE0008F939F93AF93BF93EF93FF9381EE91E027
:100DF0000E94EC01FF91EF91BF91AF919F918F9174
:100E00007F916F915F914F913F912F910F900FBE06
:100E10000F901F9018951F920F920FB60F921124EA
:100E20002F938F939F93EF93FF93E091F101F091B4
:100E3000F2018081E091F701F091F80182FD1BC081
:100E400090818091FA018F5F8F732091FB0182174F
:100E500041F0E091FA01F0E0EF51FE4F958F809361
:100E6000FA01FF91EF919F918F912F910F900FBEFB
:100E70000F901F9018958081F4CF1F920F920FB69C
:100E80000F9211242F933F938F939F93AF93BF9310
:100E90008091BB019091BC01A091BD01B091BE01B8
:100EA0003091BA0123E0230F2D3758F50196A11D8B
:100EB000B11D2093BA018093BB019093BC01A09314
:100EC000BD01B093BE018091BF019091C001A0917E
:100ED000C101B091C2010196A11DB11D8093BF0156
:100EE0009093C001A093C101B093C201BF91AF9193
:100EF0009F918F913F912F910F900FBE0F901F9058
:100F0000189526E8230F0296A11DB11DD2CF10928D
:100F1000E4011092E30188EE93E0A0E0B0E080935A
:100F2000E5019093E601A093E701B093E8018BEA15
:100F300091E09093E2018093E10185EC90E0909341
:100F4000EE018093ED0184EC90E09093F0018093AA
:100F5000EF0180EC90E09093F2018093F10181EC3D
:100F600090E09093F4018093F30182EC90E09093F1
:100F7000F6018093F50186EC90E09093F801809360
:100F8000F7011092FA011092FB011092FC011092ED
:100F9000FD011092930210929A021092A1021092F7
:100FA000A2021092A3021092A40281E08093A002F8
:100FB00080939D0210929E0292E090939F028093F4
:100FC000920284EB90E090939702809396020E94A5
:100FD000A10D90939C0280939B02009709F46BC033
:100FE00024EBFC0111922A95E9F78CE390E09093B1
:100FF00095028093940286E090E09093990280930A
:10100000980280919302882339F061E086E00E9483
:101010007B0286E00E94B500E4E0F1E0E491F0E0BC
:10102000EE0FFF1FEC50FF4F859194919093A60215
:101030008093A502E6EEF0E0E491E093A70280E061
:1010400090E0AFEFB0E080938E0290938F02A09378
:101050009002B093910280E098ECA0E0B0E0809321
:101060008A0290938B02A0938C02B0938D0280E051
:1010700090E4AFEFB0E08093860290938702A09354
:101080008802B093890282ED90E0DC0180938202B5
:1010900090938302A0938402B09385028FEF9EE128
:1010A000AFEFB0E080937E0290937F02A093800226
:1010B000B0938102089510929702109296021092B6
:1010C00095021092940297CF789484B5826084BD83
:1010D00084B5816084BD85B5826085BD85B581603C
:1010E00085BD80916E00816080936E0010928100BA
:1010F0008091810082608093810080918100816075
:101100008093810080918000816080938000809135
:10111000B10084608093B1008091B00081608093C1
:10112000B00080917A00846080937A0080917A0088
:10113000826080937A0080917A00816080937A0047
:1011400080917A00806880937A001092C10080912B
:1011500098029091990297FD07C061E00E947B027E
:10116000809198020E94B50081E0809393020E94D2
:10117000D10260919A02643029F120919B02309152
:101180009C026150C9F070E08FEF93E00E942C0D3B
:10119000F9014091960250919702CF01821B930B67
:1011A0008417950760F44081469FC001479F900DCA
:1011B000112490833196EDCF70E060E0E9CF84E0B8
:1011C00080939A0280910001882309F476C00E94DE
:1011D000FB04C2E3D0E00E94FB04F12CE12C40911F
:1011E0007E0250917F026091800270918102CE0157
:1011F0008E0D9F1D0E94FD008FEFE81AF80A85E012
:10120000E816F10461F70E94D10266E470E080E024
:1012100090E00E94A4032196C733D105E1F6CAE10C
:10122000D0E00E94FB04F12CE12C40917E02509111
:101230007F026091800270918102CE018E0D9F1D10
:101240000E94FD008FEFE81AF80A85E0E816F10425
:1012500061F70E94D10266E470E080E090E00E94B5
:10126000A4032197C431D105E1F6CBE0D0E00E9480
:10127000FB04F12CE12C40917E0250917F026091A1
:10128000800270918102CE018E0D9F1D0E94FD0093
:101290008FEFE81AF80A85E0E816F10461F70E947A
:1012A000D10266E470E080E090E00E94A403219601
:1012B000C031D105E1F6109200010E94AF04C0E0F8
:1012C000D0E02091DC013091DD014091DE015091B0
:1012D000DF010091E0016091DB0180E190E00E947C
:1012E0006C056093D7017093D8018093D9019093D6
:1012F000DA012091D2013091D3014091D401509173
:10130000D5010091D6016091D1018EE090E00E945C
:101310006C056093CD017093CE018093CF019093C3
:10132000D0012091C8013091C9014091CA0150916A
:10133000CB010091CC016091C7018FE090E00E9449
:101340006C056B017C01C092C301D092C401E09294
:10135000C501F092C6010E94FB042091DB0180913F
:10136000D7019091D801222309F44FC070E060E0CA
:101370000E9441048090CD019090CE01A090CF01B9
:10138000B090D0018091D101882309F445C064E177
:1013900070E0C4010E9441048091C701882309F4D0
:1013A00043C068E270E0C6010E9441040E94D1027D
:1013B0000E94AF048091D7019091D801A091D901EA
:1013C000B091DA018093DC019093DD01A093DE01FE
:1013D000B093DF018092D2019092D301A092D40108
:1013E000B092D501C092C801D092C901E092CA0161
:1013F000F092CB01209709F464CF0E94D801882392
:1014000009F45FCF0E9400005CCF4091E00170E0E2
:1014100060E00E94D703AECF4091D60164E170E056
:10142000C4010E94D703B8CF4091CC0168E270E0BC
:10143000C6010E94D703BACF80919B0290919C0273
:101440000E943D0E809198029091990297FD03C0F1
:1014500060E00C947B0208955058BB27AA270E9495
:10146000440A0C948C0B0E947E0B38F00E94850B72
:1014700020F039F49F3F19F426F40C947B0B0EF402
:10148000E095E7FB0C944C0BE92F0E949D0B58F361
:10149000BA17620773078407950720F079F4A6F559
:1014A0000C94D70B0EF4E0950B2EBA2FA02D0B0148
:1014B000B90190010C01CA01A0011124FF27591B99
:1014C00099F0593F50F4503E68F11A16F040A22F9F
:1014D000232F342F4427585FF3CF46953795279510
:1014E000A795F0405395C9F77EF41F16BA0B620B0F
:1014F000730B840BBAF09150A1F0FF0FBB1F661F56
:10150000771F881FC2F70EC0BA0F621F731F841F98
:1015100048F4879577956795B795F7959E3F08F0BE
:10152000B0CF9395880F08F09927EE0F9795879580
:1015300008950E94BF0B90F09F3748F4911116F464
:101540000C94D80B60E070E080E89FE3089526F0EB
:101550001B16611D711D811D0C94520B0C946D0B9B
:101560000E94280B08F481E008950E94BC0A689448
:10157000B1110C94D80B08950E94A50B88F09F57C9
:1015800098F0B92F9927B751B0F0E1F0660F771FA7
:10159000881F991F1AF0BA95C9F714C0B13091F09D
:1015A0000E94D70BB1E008950C94D70B672F782FCA
:1015B0008827B85F39F0B93FCCF386957795679562
:1015C000B395D9F73EF490958095709561957F4FCE
:1015D0008F4F9F4F0895E89409C097FB3EF4909574
:1015E0008095709561957F4F8F4F9F4F9923A9F0FC
:1015F000F92F96E9BB279395F6958795779567958B
:10160000B795F111F8CFFAF4BB0F11F460FF1BC0CE
:101610006F5F7F4F8F4F9F4F16C0882311F096E961
:1016200011C0772321F09EE8872F762F05C066230F
:1016300071F096E8862F70E060E02AF09A95660FC8
:10164000771F881FDAF7880F9695879597F9089581
:10165000990F0008550FAA0BE0E8FEEF16161706C3
:10166000E807F907C0F012161306E407F50798F02B
:10167000621B730B840B950B39F40A2661F0232B44
:10168000242B252B21F408950A2609F4A140A695C0
:101690008FEF811D811D089597F99F6780E870E0A5
:1016A00060E00895882371F4772321F09850872B08
:1016B000762F07C0662311F499270DC09051862B11
:1016C00070E060E02AF09A95660F771F881FDAF7BE
:1016D000880F9695879597F908959F3F31F091501F
:1016E00020F4879577956795B795880F911D969506
:1016F000879597F908959FEF80EC089500240A9448
:101700001616170618060906089500240A941216DC
:101710001306140605060895092E0394000C11F40F
:10172000882352F0BB0F40F4BF2B11F460FF04C0BC
:101730006F5F7F4F8F4F9F4F089557FD9058440F15
:10174000551F59F05F3F71F04795880F97FB991F20
:1017500061F09F3F79F087950895121613061406DD
:10176000551FF2CF4695F1DF08C01616170618066A
:10177000991FF1CF869571056105089408950E941F
:10178000A50BA0F0BEE7B91788F4BB279F3860F41B
:101790001616B11D672F782F8827985FF7CF86958B
:1017A00077956795B11D93959639C8F30895E89498
:1017B000BB2766277727CB0197F908950E94280B4E
:1017C00008F48FEF08950E94F30B29ED3BE54EEDF1
:1017D0005EE30C943B0C16F00C946D0B0C947B0B9D
:1017E00068940C944C0B0E94A50BA8F39923C1F3A9
:1017F000AEF3DF93CF931F930F93FF92C92FDD2793
:1018000088232AF02197660F771F881FDAF720E0D8
:1018100030E040E85FEB9FE3883920F0803E38F00D
:1018200021968F770E942D0AE8E6F0E004C00E941E
:101830002D0AE5E9F0E00E94F50C8B01BE01EC01F8
:10184000FB2E6F5771097595771F880B990B0E94B6
:10185000ED0A28E132E741E35FE30E944E0CAF2D31
:101860009801AE01FF900F911F91CF91DF910E94DF
:10187000440A0C948C0B0E944E0C0C948C0B0E940E
:101880007E0B38F00E94850B20F0952311F00C940C
:101890004C0B0C947B0B11240C94D80B0E949D0BC9
:1018A00070F3959FC1F3950F50E0551F629FF001B3
:1018B000729FBB27F00DB11D639FAA27F00DB11DCC
:1018C000AA1F649F6627B00DA11D661F829F222755
:1018D000B00DA11D621F739FB00DA11D621F839FDC
:1018E000A00D611D221F749F3327A00D611D231FB2
:1018F000849F600D211D822F762F6A2F11249F5700
:1019000050409AF0F1F088234AF0EE0FFF1FBB1F02
:10191000661F771F881F91505040A9F79E3F5105C1
:1019200080F00C944C0B0C94D80B5F3FE4F3983E82
:10193000D4F3869577956795B795F795E7959F5F6B
:10194000C1F7FE2B880F911D9695879597F90895FD
:1019500019F416F40C947B0B0C946D0B0E94A50BE0
:10196000B8F39923C9F3B6F39F57550B87FF0E942D
:10197000EE0C0024A0E640EA900180585695979519
:1019800028F4805C660F771F881F20F02617370722
:10199000480730F4621B730B840B202931294A2B32
:1019A000A69517940794202531254A2758F7660FE6
:1019B000771F881F20F026173707480730F4620B7F
:1019C000730B840B200D311D411DA09581F7B901CA
:1019D000842F9158880F969587950895915050407F
:1019E000660F771F881FD2F70895DF93CF931F9359
:1019F0000F93FF92EF92DF927B018C01689406C0F7
:101A0000DA2EEF010E944E0CFE01E894A59125917B
:101A1000359145915591A6F3EF010E94440AFE01CC
:101A20009701A801DA9469F7DF90EF90FF900F918A
:101A30001F91CF91DF910895DB018F939F930E94B7
:101A4000810DBF91AF91A29F800D911DA39F900D1D
:101A5000B29F900D11240895AA1BBB1B51E107C032
:101A6000AA1FBB1FA617B70710F0A61BB70B881F2E
:101A7000991F5A95A9F780959095BC01CD010895BD
:101A8000A1E21A2EAA1BBB1BFD010DC0AA1FBB1F82
:101A9000EE1FFF1FA217B307E407F50720F0A21BF4
:101AA000B30BE40BF50B661F771F881F991F1A9461
:101AB00069F760957095809590959B01AC01BD018B
:101AC000CF010895052E97FB1EF400940E94790D16
:101AD00057FD07D00E94400D07FC03D04EF40C9434
:101AE000790D50954095309521953F4F4F4F5F4F61
:101AF000089590958095709561957F4F8F4F9F4F7A
:101B000008950E94920DA59F900DB49F900DA49FE3
:101B1000800D911D11240895EE0FFF1F0590F49183
:101B2000E02D0994A29FB001B39FC001A39F700D47
:101B3000811D1124911DB29F700D811D1124911DD5
:101B400008950F931F93CF93DF938230910510F484
:101B500082E090E0E091AA02F091AB0230E020E058
:101B6000B0E0A0E0309799F42115310509F44AC09E
:101B7000281B390B24303105D8F58A819B816115EA
:101B8000710589F1FB0193838283FE0111C04081BD
:101B900051810281138148175907E0F0481759070E
:101BA00099F4109761F012960C93129713961C9368
:101BB0003296CF01DF91CF911F910F91089500933D
:101BC000AA021093AB02F4CF2115310551F0421750
:101BD000530738F0A901DB019A01BD01DF01F801CB
:101BE000C1CFEF01F9CF9093AB028093AA02CDCF82
:101BF000FE01E20FF31F8193919322503109398343
:101C00002883D7CF2091A8023091A902232B41F439
:101C100020910301309104013093A9022093A8027E
:101C200020910101309102012115310541F42DB7B8
:101C30003EB74091050150910601241B350BE09100
:101C4000A802F091A902E217F307A0F42E1B3F0BA4
:101C50002817390778F0AC014E5F5F4F241735071E
:101C600048F04E0F5F1F5093A9024093A802819342
:101C700091939FCFF0E0E0E09CCFCF93DF9300976C
:101C8000E9F0FC01329713821282A091AA02B0916E
:101C9000AB02ED0130E020E01097A1F4208131810A
:101CA000820F931F2091A8023091A90228173907AB
:101CB00009F061C0F093A902E093A802DF91CF91EF
:101CC0000895EA01CE17DF07E8F54A815B819E019E
:101CD00041155105B1F7E901FB83EA834991599117
:101CE000C40FD51FEC17FD0761F480819181029626
:101CF000840F951FE90199838883828193819B8357
:101D00008A83F0E0E0E012968D919C911397009702
:101D1000B9F52D913C911197CD010296820F931F39
:101D20002091A8023091A9022817390739F6309777
:101D300051F51092AB021092AA02B093A902A0939F
:101D4000A802BCCFD383C28340815181840F951FE9
:101D5000C817D90761F44E5F5F4F88819981480F9A
:101D6000591F518340838A819B81938382832115EC
:101D7000310509F0B0CFF093AB02E093AA029ECFF9
:101D8000FD01DC01C0CF13821282D7CFDC0101C07C
:101D90006D9341505040E0F7089510E0CAE8D0E05C
:101DA00004C0FE010E948C0D2196CB38D107C9F7E3
:041DB000F894FFCFD5
:101DB400010000AC0280000000F4C101000000003A
:101DC40000F0C1020000000000F0C10300000000A8
:101DD40000D0C1040000000000C8C10500000000DC
:101DE40000C0C1060000000000B8C10700000000E8
:101DF40000B0C1080000000000A8C10900000000F4
:101E040000A0C10A000000000098C10B00000000FF
:101E14000090C10C000000000080C10D0000000013
:101E24000060C10E000000000040C10F000000006F
:101E34000020C110000000000000C11100000000DB
:101E440000C0C012000000000080C01300000000A9
:101E54000000C014000000000000000E026E019B90
:0A1E6400015B02CC01AA01BE0100DF
:00000001FF
